:100000000C943D000C9457030C94EE030C94EE03F7
:100010000C94EE030C94EE030C94EE030C94EE039C
:100020000C94EE030C94EE030C9461010C948B037E
:100030000C94EE030C94EE030C94EE030C94EE037C
:100040000C9467000C94EE030C94EE030C94EE03F6
:100050000C94EE03007100730007F90073007580C3
:1000600000750077800068006D0007F0006D00717A
:100070000007F5006000680007E811241FBECFE507
:10008000D8E0DEBFCDBFE4E5F0E040E017C0B591B9
:10009000A59135912591059107FD0CC0959185910C
:1000A000EF01F92FE82F05900D92A217B307D9F7AA
:1000B000FE0104C01D92A217B307E1F7EA37F40767
:0E00C00031F70E94E8010C946500F894FFCF20
:1000CE001F920F920FB60F9211242F933F934F93BF
:1000DE005F936F937F938F939F93AF93BF93EF93A2
:1000EE00FF93CF93DF93CDB7DEB76497DEBFCDBF5F
:1000FE000E94E203BC01660F771F660F771F860F03
:10010E00971FBC01990F880B990B0E94AD012FE62A
:10011E0032E143E85FE30E94E7030E94C003DC0183
:10012E00CB014AE0BE016F5F7F4F0E94800380913A
:10013E00750090917600892BB1F048E650E067E0AB
:10014E0081E00E940003AE014F5F5F4F67E081E0E8
:10015E000E94000380E090E00E94950310927600CA
:10016E001092750017C048E650E067E080E00E94EC
:10017E000003AE014F5F5F4F67E080E00E94000317
:10018E0081E090E00E94950381E090E090937600EC
:10019E00809375002FEF83ED90E3215080409040C7
:1001AE00E1F700C0000064960FB6F894DEBF0FBEF4
:1001BE00CDBFDF91CF91FF91EF91BF91AF919F9105
:1001CE008F917F916F915F914F913F912F910F90F2
:0801DE000FBE0F901F90189551
:1001E6000E94CE0358F00E94C70340F029F45F3FF7
:1001F60029F00C94DC0351110C94D6030C94EB03F8
:100206000E949C0268F39923B1F3552391F3951B41
:10021600550BBB27AA2762177307840738F09F5F21
:100226005F4F220F331F441FAA1FA9F335D00E2E8E
:100236003AF0E0E832D091505040E695001CCAF7FB
:100246002BD0FE2F29D0660F771F881FBB1F2617BE
:1002560037074807AB07B0E809F0BB0B802DBF0195
:10026600FF2793585F4F3AF09E3F510578F00C9464
:10027600DC030C94D6035F3FE4F3983ED4F38695F3
:1002860077956795B795F7959F5FC9F7880F911D85
:100296009695879597F90895E1E0660F771F881F71
:1002A600BB1F621773078407BA0720F0621B730B24
:0C02B600840BBA0BEE1F88F7E09508954A
:1002C2001F920F920FB60F9211242F933F934F93C9
:1002D2005F936F937F938F939F93AF93BF93EF93AC
:1002E200FF93809173009091740001969093740033
:1002F20080937300CE97E9F480917100909172001F
:10030200892B49F08FEF90E00E94F0031092720067
:10031200109271000AC080E090E00E94F00381E038
:1003220090E090937200809371001092740010928A
:100332007300FF91EF91BF91AF919F918F917F9148
:100342006F915F914F913F912F910F900FBE0F9040
:040352001F9018954B
:10035600E89409C097FB3EF4909580957095619559
:100366007F4F8F4F9F4F9923A9F0F92F96E9BB270F
:100376009395F695879577956795B795F111F8CF8B
:10038600FAF4BB0F11F460FF1BC06F5F7F4F8F4FF6
:100396009F4F16C0882311F096E911C0772321F0EC
:1003A6009EE8872F762F05C0662371F096E8862F84
:1003B60070E060E02AF09A95660F771F881FDAF7DB
:0A03C600880F9695879597F9089522
:1003D00081E090E00E949F0381E090E00E94A803EA
:1003E0002FEF87EA91E6215080409040E1F700C06E
:1003F00000000E9475030E94B9030E94DF020E9460
:10040000B103789440E650E060E080E00E94000391
:100410004DE650E06DE080E00E94000340E650E0D1
:1004200060E081E00E9400034DE650E06DE081E075
:0A0430000E9400030E94F203FFCFB8
:10043A000E94A40288F09F5798F0B92F9927B751C4
:10044A00B0F0E1F0660F771F881F991F1AF0BA956E
:10045A00C9F714C0B13091F00E94D503B1E00895F4
:10046A000C94D503672F782F8827B85F39F0B93FE6
:10047A00CCF3869577956795B395D9F73EF4909521
:0E048A008095709561957F4F8F4F9F4F08951D
:100498009BB39F70282F207F922B9BBBC198C39A38
:1004A80035E33A95F1F70000C398EFE3FFE13197A0
:1004B800F1F700C000002BB32F70F0E18F9FC0014F
:1004C8001124822B8BBBC39A35E03A95F1F70000D3
:1004D800C3988FE39FE10197F1F700C000000895EA
:1004E8009BB39F70282F207F922B9BBBC19AC39AE6
:1004F80035E33A95F1F70000C398EFE1F3E031975F
:10050800F1F700C000002BB32F70F0E18F9FC001FE
:100518001124822B8BBBC39A35E33A95F1F700007F
:10052800C3988FE59DE60197F1F700C00000089594
:1005380057FD9058440F551F59F05F3F71F047958C
:10054800880F97FB991F61F09F3F79F08795089571
:10055800121613061406551FF2CF4695F1DF08C090
:10056800161617061806991FF1CF869571056105AD
:040578000894089546
:10057C006115710581F061307105D1F447B321E04B
:10058C0030E0B90102C0660F771F8A95E2F7CB0104
:10059C00842B87BB089547B321E030E0B90102C03A
:1005AC00660F771F8A95E2F7CB018095842387BB72
:0205BC000895A0
:1005BE0080EF8ABB8FE087BBC2982FEF89EF90E068
:1005CE00215080409040E1F700C0000083E30E947C
:1005DE004C0282E30E944C0288E20E944C028CE0A4
:1005EE000E944C0286E00E944C0281E00E944C0266
:0205FE0008955E
:10060000CF93DF93EA01811108C0603178F4862F1F
:100610008F7080680E944C0209C0813039F46031CB
:1006200028F4862F8F70806C0E944C02CE010E94AD
:080630006603DF91CF910895EC
:10063800BB27FB015527AA27880F991FAA1FA417B4
:1006480010F0A41B83955051B9F7A05DAA3308F0A8
:10065800A95DA193009779F7B111B1931192CB01DC
:040668000C944703A4
:10066C00092E0394000C11F4882352F0BB0F40F4B4
:10067C00BF2B11F460FF04C06F5F7F4F8F4F9F4FF4
:02068C000895CF
:10068E00DC01FC01672F71917723E1F7329704C0EB
:10069E007C916D9370836291AE17BF07C8F3089576
:1006AE001F920F920FB60F9211248F938CB78C5E00
:0E06BE008CBF8F910F900FBE0F901F9018955C
:1006CC00CF93DF93EC018881882331F021960E942F
:0E06DC00740289918111FBCFDF91CF910895B7
:1006EA0083B7856683BF1CBE61E070E083E090E05B
:0606FA000E94BE020895FB
:10070000BB274A3031F4992322F4BDE290958195BC
:060710009F4F0C941D0335
:100716001F920F920FB60F9211240F900FBE0F90DB
:040726001F90189573
:10072A008830910530F497B1987F97B997B1892BA2
:04073A0087B90895DE
:10073E00009729F0019721F48FEF84BB089514BA26
:02074E0008950C
:10075000009729F0019721F48FEF81BB089511BA1A
:020760000895FA
:1007620017B880B7806480BF86B18F6A86B9089552
:0E07720085B7836085BF8BB780648BBF089509
:0E0780000E941D026894B1110C94D6030895D6
:0E078E0000240A941616170618060906089588
:0E079C0000240A94121613061406050608958A
:0E07AA00E894BB2766277727CB0197F90895BF
:0C07B80097F99F6780E870E060E008950A
:0A07C40084B125B190E0922B089556
:0807CE000E9403010C943603A4
:0607D6009FEF80EC089586
:0407DC000C94000079
:0407E00085BB089538
:0407E400369A0895A4
:0807E800566F6C74203D2000E7
:0507F000202020200084
:0407F500206D56001D
:0207F9000100FD
:00000001FF
