:100000000C943B000C94CB010C9480030C94800363
:100010000C9480030C9480030C9480030C94800354
:100020000C9480030C9480030C9480030C94800344
:100030000C9480030C9480030C9480030C94800334
:100040000C9465000C9480030C9480030C94800342
:100050000C94800300710073800073007500071911
:100060000068006D000710006D007100071500604A
:1000700000680007080011241FBECFE5D8E0DEBFEE
:10008000CDBFE4E5F0E040E017C0B591A591359112
:100090002591059107FD0CC095918591EF01F92FF0
:1000A000E82F05900D92A217B307D9F7FE0104C0FF
:1000B0001D92A217B307E1F7E537F40731F70E9465
:0A00C000F9010C946300F894FFCFDF
:1000CA001F920F920FB60F9211242F933F934F93C3
:1000DA005F936F937F938F939F93AF93BF93EF93A6
:1000EA00FF93CF93DF93CDB7DEB76497DEBFCDBF63
:1000FA000E947403BC01660F771F660F771F860F75
:10010A00971FBC01990F880B990B0E9461012FE67A
:10011A0032E143E85FE30E9479030E945203DC0163
:10012A00CB014AE0BE016F5F7F4F0E941C038091A2
:10013A00710090917200892BB1F048E650E067E0B7
:10014A0081E00E94B602AE014F5F5F4F67E081E037
:10015A000E94B60280E090E00E942703109272008B
:10016A001092710017C048E650E067E080E00E94F4
:10017A00B602AE014F5F5F4F67E080E00E94B602B1
:10018A0081E090E00E94270381E090E09093720062
:10019A00809371002FEF83ED90E3215080409040CF
:1001AA00E1F700C0000064960FB6F894DEBF0FBEF8
:1001BA00CDBFDF91CF91FF91EF91BF91AF919F9109
:1001CA008F917F916F915F914F913F912F910F90F6
:0801DA000FBE0F901F90189555
:1001E2000E94600358F00E94590340F029F45F3FD7
:1001F20029F00C946E0351110C9468030C947D0346
:100202000E94730268F39923B1F3552391F3951B6E
:10021200550BBB27AA2762177307840738F09F5F25
:100222005F4F220F331F441FAA1FA9F335D00E2E92
:100232003AF0E0E832D091505040E695001CCAF7FF
:100242002BD0FE2F29D0660F771F881FBB1F2617C2
:1002520037074807AB07B0E809F0BB0B802DBF0199
:10026200FF2793585F4F3AF09E3F510578F00C9468
:100272006E030C9468035F3FE4F3983ED4F38695D3
:1002820077956795B795F7959F5FC9F7880F911D89
:100292009695879597F90895E1E0660F771F881F75
:1002A200BB1F621773078407BA0720F0621B730B28
:0C02B200840BBA0BEE1F88F7E09508954E
:1002BE00E89409C097FB3EF49095809570956195F2
:1002CE007F4F8F4F9F4F9923A9F0F92F96E9BB27A8
:1002DE009395F695879577956795B795F111F8CF24
:1002EE00FAF4BB0F11F460FF1BC06F5F7F4F8F4F8F
:1002FE009F4F16C0882311F096E911C0772321F085
:10030E009EE8872F762F05C0662371F096E8862F1C
:10031E0070E060E02AF09A95660F771F881FDAF773
:0A032E00880F9695879597F90895BA
:100338000E947B0288F09F5798F0B92F9927B751F0
:10034800B0F0E1F0660F771F881F991F1AF0BA9571
:10035800C9F714C0B13091F00E946703B1E0089565
:100368000C946703672F782F8827B85F39F0B93F57
:10037800CCF3869577956795B395D9F73EF4909524
:0E0388008095709561957F4F8F4F9F4F089520
:100396001F920F920FB60F9211242F933F934F93F4
:1003A6005F936F937F938F939F93AF93BF93EF93D7
:1003B600FF938091730090917400892B31F00E9415
:1003C60082031092740010927300FF91EF91BF9117
:1003D600AF919F918F917F916F915F914F913F91D7
:0C03E6002F910F900FBE0F901F901895E4
:1003F20081E090E00E94310381E090E00E943A03A4
:100402000E944B030E9495020E944303789440E6A7
:1004120050E060E080E00E94B6024DE650E06DE000
:1004220080E00E94B60240E650E060E081E00E9477
:10043200B6024DE650E06DE081E00E94B6020E94F5
:040442008203FFCF63
:100446009BB39F70282F207F922B9BBBC198C39A8A
:1004560035E33A95F1F70000C398EFE3FFE13197F2
:10046600F1F700C000002BB32F70F0E18F9FC001A1
:100476001124822B8BBBC39A35E03A95F1F7000025
:10048600C3988FE39FE10197F1F700C0000008953C
:100496009BB39F70282F207F922B9BBBC19AC39A38
:1004A60035E33A95F1F70000C398EFE1F3E03197B1
:1004B600F1F700C000002BB32F70F0E18F9FC00151
:1004C6001124822B8BBBC39A35E33A95F1F70000D2
:1004D600C3988FE59DE60197F1F700C000000895E7
:1004E60057FD9058440F551F59F05F3F71F04795DF
:1004F600880F97FB991F61F09F3F79F087950895C4
:10050600121613061406551FF2CF4695F1DF08C0E2
:10051600161617061806991FF1CF869571056105FF
:040526000894089598
:10052A0080EF8ABB8FE087BBC2982FEF89EF90E0FC
:10053A00215080409040E1F700C0000083E30E9410
:10054A00230282E30E94230288E20E9423028CE0B3
:10055A000E94230286E00E94230281E00E94230275
:02056A000895F2
:10056C00CF93DF93EA01811108C0603178F4862FB4
:10057C008F7080680E94230209C0813039F4603189
:10058C0028F4862F8F70806C0E942302CE010E946B
:08059C000D03DF91CF910895DA
:1005A400BB27FB015527AA27880F991FAA1FA41749
:1005B40010F0A41B83955051B9F7A05DAA3308F03D
:1005C400A95DA193009779F7B111B1931192CB0171
:0405D4000C94FD0284
:1005D800092E0394000C11F4882352F0BB0F40F449
:1005E800BF2B11F460FF04C06F5F7F4F8F4F9F4F89
:0205F800089564
:1005FA00DC01FC01672F71917723E1F7329704C080
:10060A007C916D9370836291AE17BF07C8F308950A
:10061A00CF93DF93EC018881882331F021960E94E1
:0E062A004B0289918111FBCFDF91CF91089592
:10063800BB274A3031F4992322F4BDE29095819585
:060648009F4F0C94D30249
:10064E008830910530F497B1987F97B997B1892B7F
:04065E0087B90895BB
:10066200009729F0019721F48FEF84BB089514BA03
:020672000895E9
:10067400009729F0019721F48FEF81BB089511BAF7
:020684000895D7
:1006860017B880B7806480BF86B18F6A86B908952F
:0E06960085B7836085BF8BB780648BBF0895E6
:0E06A4000E949C016894B1110C9468030895A3
:0E06B20000240A941616170618060906089565
:0E06C00000240A941216130614060506089567
:0E06CE00E894BB2766277727CB0197F908959C
:0C06DC0097F99F6780E870E060E00895E7
:0A06E80084B125B190E0922B089533
:0806F2000E9401010C94EC02CE
:0606FA009FEF80EC089563
:040700000C94000055
:04070400369A089584
:08070800566F6C74203D2000C7
:05071000202020200064
:04071500206D5600FD
:020719000100DD
:00000001FF
