:100000000C942D000C94BC000C94BC000C94BC000F
:100010000C94BC000C94BC000C94BC000C94BC0070
:100020000C94BC000C94BC000C94BC000C94BC0060
:100030000C94BC000C94BC000C94BC000C94BC0050
:100040000C94BC000C94BC000C94BC000C94BC0040
:100050000C94BC0000600062800011241FBECFE53C
:10006000D4E0DEBFCDBFE4E5F0E040E017C0B591DD
:10007000A59135912591059107FD0CC0959185912C
:10008000EF01F92FE82F05900D92A217B307D9F7CA
:10009000FE0104C01D92A217B307E1F7E935F4078A
:0E00A00031F70E9457000C945500F894FFCFE2
:1000AE0081E090E00E94AA0081E090E00E94B300FF
:1000BE001092610010926000C1E0D0E0CE010E946B
:1000CE00C000CE01809590950E94BE00CC0FDD1F22
:1000DE002FEF83ED90E3215080409040E1F700C078
:1000EE0000008091600090916100019690936100F4
:1000FE0080936000079714F31FC0CE010E94C000CA
:10010E00CE01809590950E94BE00D595C7952FEF94
:10011E0083ED90E3215080409040E1F700C0000055
:10012E0080916000909161000196909361008093A0
:10013E006000079714F3BCCF10926100109260001C
:06014E00C0E8D0E0DACFAA
:10015400009729F0019721F48FEF84BB089514BA16
:020164000895FC
:10016600009729F0019721F48FEF81BB089511BA0A
:020176000895EA
:040178000C940000E3
:04017C0085BB0895A2
:0401800082BB0895A1
:00000001FF
