:100000000C9434000C94AD010C94AD010C94AD0132
:100010000C94AD010C94AD010C94AD010C94AD01A8
:100020000C94AD010C94AD010C94AD010C94AD0198
:100030000C94AD010C94AD010C94AD010C94AD0188
:100040000C94AD010C94AD010C94AD010C94AD0178
:100050000C94AD0100750076800060006B00035EBB
:10006000006B00750003690011241FBECFE5D4E0CA
:10007000DEBFCDBFE4E5F0E040E017C0B591A5914B
:1000800035912591059107FD0CC095918591EF0162
:10009000F92FE82F05900D92A217B307D9F7FE01AB
:1000A00004C01D92A217B307E1F7E736F40731F752
:0C00B0000E945E000C945C00F894FFCFEE
:1000BC000E94590161E083E090E00E94A50060E09D
:1000CC0070E082E090E00E94380161E070E083E033
:1000DC0090E00E94380164E083E090E00E94A5006B
:1000EC0080E690E00E947A01C1E082E090E00E94FC
:1000FC009601892BD1F3809175008C278093750024
:10010C0083E090E00E94A20180917500882339F071
:10011C000E9489018BE690E00E947A0106C00E9441
:10012C00890180E690E00E947A012FEF83EC99E040
:0E013C00215080409040E1F700C00000D6CF77
:10014A006230B9F018F4613031F008956330F9F093
:10015A00643059F108954BB321E030E0B90102C08F
:10016A00660F771F8A95E2F7CB01809584238BBBB4
:10017A00089548B321E030E0B90102C0660F771F45
:10018A008A95E2F7CB018095842388BB089545B30D
:10019A0021E030E0B90102C0660F771F8A95E2F7C5
:1001AA00CB018095842385BB089542B321E030E0DA
:1001BA00B90102C0660F771F8A95E2F7CB018095D5
:0601CA00842382BB0895AE
:1001D0009BB39F70282F207F922B9BBBC198C39A03
:1001E00035E33A95F1F70000C398EFE3FFE131976B
:1001F000F1F700C000002BB32F70F0E18F9FC0011A
:100200001124822B8BBBC39A35E03A95F1F700009D
:10021000C3988FE39FE10197F1F700C000000895B4
:100220009BB39F70282F207F922B9BBBC19AC39AB0
:1002300035E33A95F1F70000C398EFE1F3E0319729
:10024000F1F700C000002BB32F70F0E18F9FC001C9
:100250001124822B8BBBC39A35E33A95F1F700004A
:10026000C3988FE59DE60197F1F700C0000008955F
:100270006115710581F061307105D1F441B321E060
:1002800030E0B90102C0660F771F8A95E2F7CB0113
:10029000842B81BB089541B321E030E0B90102C055
:1002A000660F771F8A95E2F7CB018095842381BB87
:0202B0000895AF
:1002B2008FEF8ABB8FE087BBC2982FEF89EF90E068
:1002C200215080409040E1F700C0000083E30E948B
:1002D200E80082E30E94E80088E20E94E8008CE0E5
:1002E2000E94E80086E00E94E80081E00E94E800A7
:0202F20008956D
:1002F400CF93DF93EC018881882331F021960E940B
:0E030400100189918111FBCFDF91CF910895F7
:1003120081E00E94E8008FE39FE10197F1F700C0BE
:0A032200000080E80E94E800089542
:10032C0020B330E0A90102C0559547958A95E2F7B4
:08033C00CA01817099270895A0
:1003440092B321E030E002C0220F331F8A95E2F716
:06035400292722BB0895D9
:04035A000C940000FF
:0B035E004C4544206973204F464600C8
:0A0369004C4544206973204F4E00FC
:00000001FF
