:100000000C942A000C94F9000C94F9000C94F9005B
:100010000C94F9000C94F9000C94F9000C94F9007C
:100020000C94F9000C94F9000C94F9000C94F9006C
:100030000C94F9000C94F9000C94F9000C94F9005C
:100040000C94F9000C94F9000C94F9000C94F9004C
:100050000C94F90011241FBECFE5D4E0DEBFCDBF64
:0C0060000E94B8000C943400F894FFCF0C
:10006C006230B9F018F4613031F008956330F9F072
:10007C00643059F108954BB321E030E0B90102C06E
:10008C00660F771F8A95E2F7CB01809584238BBB93
:10009C00089548B321E030E0B90102C0660F771F24
:1000AC008A95E2F7CB018095842388BB089545B3EC
:1000BC0021E030E0B90102C0660F771F8A95E2F7A4
:1000CC00CB018095842385BB089542B321E030E0B9
:1000DC00B90102C0660F771F8A95E2F7CB018095B4
:0600EC00842382BB08958D
:1000F2006230B1F018F4613031F008956330E9F004
:10010200643041F108954BB321E030E0B90102C0FF
:10011200660F771F8A95E2F7CB01842B8BBB08957C
:1001220048B321E030E0B90102C0660F771F8A951B
:10013200E2F7CB01842B88BB089545B321E030E080
:10014200B90102C0660F771F8A95E2F7CB01842BB3
:1001520085BB089542B321E030E0B90102C0660FC9
:0E016200771F8A95E2F7CB01842B82BB0895AC
:1001700089E090E00E94E7001BBA89E090E00E94CD
:10018000F00015BAB8988A9A63E082E090E00E9485
:10019000790080E090E00E94DB00892B31F064E080
:1001A00083E090E00E947900F4CF64E083E090E087
:0601B0000E943600EECFB4
:1001B60026B330E0A90102C0559547958A95E2F726
:0801C600CA0181709927089518
:1001CE00009729F0019721F48FEF8ABB08951ABA90
:0201DE00089582
:1001E000009729F0019721F48FEF84BB089514BA8A
:0201F000089570
:0401F2000C94000069
:00000001FF
