:100000000C9434000C94A1000C94BE010C94BE011D
:100010000C94BE010C94BE010C94BE010C94BE0164
:100020000C94BE010C94BE010C94BE010C94BE0154
:100030000C94BE010C94BE010C94BE010C94BE0144
:100040000C94BE010C94BE010C94BE010C94BE0134
:100050000C94BE0100750076800060006B00038088
:10006000006B007500038B0011241FBECFE5D4E0A8
:10007000DEBFCDBFE4E5F0E040E017C0B591A5914B
:1000800035912591059107FD0CC095918591EF0162
:10009000F92FE82F05900D92A217B307D9F7FE01AB
:1000A00004C01D92A217B307E1F7E736F40731F752
:0C00B0000E9470010C945C00F894FFCFDB
:1000BC006230B9F018F4613031F008956330F9F022
:1000CC00643059F108954BB321E030E0B90102C01E
:1000DC00660F771F8A95E2F7CB01809584238BBB43
:1000EC00089548B321E030E0B90102C0660F771FD4
:1000FC008A95E2F7CB018095842388BB089545B39C
:10010C0021E030E0B90102C0660F771F8A95E2F753
:10011C00CB018095842385BB089542B321E030E068
:10012C00B90102C0660F771F8A95E2F7CB01809563
:06013C00842382BB08953C
:100142001F920F920FB60F9211242F933F934F934A
:100152005F936F937F938F939F93AF93BF93EF932D
:10016200FF939091750081E089278093750083E069
:1001720090E00E94AC0180917500882339F00E94C2
:100182009F018BE690E00E94900106C00E949F01B1
:1001920080E690E00E949001FF91EF91BF91AF91B4
:1001A2009F918F917F916F915F914F913F912F918D
:0A01B2000F900FBE0F901F901895DC
:1001BC009BB39F70282F207F922B9BBBC198C39A17
:1001CC0035E33A95F1F70000C398EFE3FFE131977F
:1001DC00F1F700C000002BB32F70F0E18F9FC0012E
:1001EC001124822B8BBBC39A35E03A95F1F70000B2
:1001FC00C3988FE39FE10197F1F700C000000895C9
:10020C009BB39F70282F207F922B9BBBC19AC39AC4
:10021C0035E33A95F1F70000C398EFE1F3E031973D
:10022C00F1F700C000002BB32F70F0E18F9FC001DD
:10023C001124822B8BBBC39A35E33A95F1F700005E
:10024C00C3988FE59DE60197F1F700C00000089573
:10025C006115710581F061307105D1F441B321E074
:10026C0030E0B90102C0660F771F8A95E2F7CB0127
:10027C00842B81BB089541B321E030E0B90102C069
:10028C00660F771F8A95E2F7CB018095842381BB9B
:02029C000895C3
:10029E008FEF8ABB8FE087BBC2982FEF89EF90E07C
:1002AE00215080409040E1F700C0000083E30E949F
:1002BE00DE0082E30E94DE0088E20E94DE008CE017
:1002CE000E94DE0086E00E94DE0081E00E94DE00D9
:0202DE00089581
:1002E0000E94B70178940E944F0161E083E090E0A2
:1002F0000E945E0060E070E082E090E00E942E01CB
:1003000061E070E083E090E00E942E0164E083E011
:1003100090E00E945E0080E690E00E949001FFCF96
:10032000CF93DF93EC018881882331F021960E94DE
:0E033000060189918111FBCFDF91CF910895D5
:10033E0081E00E94DE008FE39FE10197F1F700C09C
:0A034E00000080E80E94DE00089520
:1003580092B321E030E002C0220F331F8A95E2F702
:06036800292722BB0895C5
:0E036E0085B7836085BF8BB780648BBF089511
:04037C000C940000DD
:0B0380004C4544206973204F464600A6
:0A038B004C4544206973204F4E00DA
:00000001FF
